:020000040800F2
:10000000780C002049020008693F0008AD34000860
:10001000653F00082F160008814F0008000000000F
:10002000000000000000000000000000A5470008DC
:100030006F170008000000006D3F0008A747000888
:1000400063020008630200086302000863020008FC
:1000500063020008630200086302000863020008EC
:1000600063020008630200086302000863020008DC
:1000700035160008630200086302000863020008E6
:1000800045160008630200086302000863020008C6
:1000900063020008630200086302000863020008AC
:1000A000630200086302000863020008630200089C
:1000B000630200086302000863020008630200088C
:1000C000630200086302000863020008630200087C
:1000D00063020008514F0008614F0008714F00088B
:1000E000630200086302000863020008630200085C
:1000F000630200086302000863020008630200084C
:10010000630200086302000863020008630200083B
:10011000630200086302000863020008630200082B
:100120006302000863020008551600086302000815
:10013000630200086302000863020008630200080B
:1001400063020008630200086302000863020008FB
:1001500063020008630200086302000863020008EB
:1001600063020008630200086302000863020008DB
:100170006302000863020008630200080000000038
:10018000630200086302000800F002F800F04CF877
:100190000AA090E8000C82448344AAF10107DA45E2
:1001A00001D100F041F8AFF2090EBAE80F0013F0E8
:1001B000010F18BFFB1A43F0010318478C5D0000C4
:1001C000AC5D0000103A24BF78C878C1FAD8520755
:1001D00024BF30C830C144BF04680C6070470000C1
:1001E0000023002400250026103A28BF78C1FBD840
:1001F000520728BF30C148BF0B607047662905F021
:100200001586752900F0D280002070471FB505F0D3
:1002100008FE00F0CBFC04000020002105F074FD76
:10022000E0601FBD10B510BD00F0C4FD1146FFF722
:10023000EDFF05F036FD00F0E2FD03B4FFF7F2FF3D
:1002400003BC00F025FE000009488047094800472C
:10025000FEE7FEE7FEE7FEE7FEE7FEE7FEE7FEE776
:10026000FEE7FEE704480549054A064B70470000D3
:10027000654800088901000878060020780C0020F5
:10028000780800207808002053EA020C00F069800A
:100290002DE9F04B4FF00006002B1FBFB3FA83F59A
:1002A00003FA05F424FA05F65E4012BF1643B2FACB
:1002B00082F502FA05F4C5F120051EBF22FA05FCFD
:1002C00044EA0C04203556EA044C4FEA144418BFA3
:1002D000641C4FF000084FF00009904271EB030CD2
:1002E00039D3002919BFB1FA81F701FA07F6B0FA3C
:1002F00080F700FA07F6C7F120071EBF20FA07FCB7
:1003000046EA0C062037B6FBF4FCA7EB0507103FC6
:1003100007F01F0BCBF120060CFA0BFB2CFA06F6AC
:1003200044BFB3460026202FA4BF5E464FF0000B0B
:100330005BEA060C08BF4FF0010B19EB0B09ABFB96
:10034000027C48EB0608C01B06FB02CC0BFB03CC6F
:1003500071EB0C01C1E70B46024641464846BDE839
:10036000F08B13B54FF000004FF00001AFF30080A9
:10037000BDE81C40704700000FB41CB50C0007AA74
:10038000009001D02044401E074B7B4469460190F9
:10039000069800F0EAFB002C03D06946002000F02C
:1003A000F7FB1CBC5DF814FB0D0800002DE9F041C3
:1003B0000646002410687529314616A510D0AFF303
:1003C0000080002802DA404213A507E031688A075E
:1003D00001D512A502E0490704D511A5012401E0C9
:1003E000AFF3008000210A2206F1240709E0B0FBE8
:1003F000F2FCB0FBF2F302FB1C00303078541846DC
:10040000491C0028F3D123462A463046BDE8F04176
:1004100000F03EB9000000002D0000002B0000009D
:10042000200000002DE9F0474FF0000A89460446FD
:10043000C0F820A02046E1688847002876D025280B
:1004400006D0D4E901219047206A401C2062F1E7E0
:10045000E168204600268847C4F81CA0054600270E
:10046000C4F818A02A2D09D0284605F013FC38B38B
:1004700004EB8708303DC8F8185019E059F8041B00
:10048000204604EB87029161E1688847012F054609
:1004900018D1E069002820DA26F020061DE0D8F8FF
:1004A000180000EB800005EB40003038C8F8180059
:1004B0002046E1688847054605F0ECFB0028EED1B0
:1004C000012F0AD02E2D08D12046E16888477F1CD5
:1004D0000546022F46F02006C4DBA069002803DA97
:1004E000404246F00106A061F00701D026F0100658
:1004F0006C2D0AD0682D08D04C2D39D06A2D35D0FE
:10050000742D35D07A2D33D016E0E1682F46204681
:100510008847B84205460AD16C2F27D04FF4806037
:10052000E168064320468847054605E027E06C2F32
:100530001AD04FF4807006430DB3A5F1410019287D
:1005400002D8203546F400664A46294620462660F1
:100550004E46FFF753FE80B101280BD0F61D26F062
:10056000070000F1080965E74020E4E78020D7E7AD
:100570000020D5E706F104095CE7284661E7206A18
:10058000BDE8F08710B5431C02E010F8011B71B103
:100590008107FAD14FF0013202C88C1A8C4314EA59
:1005A000C211F9D0C01A0A0603D0C01E10BDC01A6D
:1005B00010BD0A0401D0801E10BD0902FCD0401EEF
:1005C00010BD10B5203AC0F00B80B1E81850203AA9
:1005D000A0E81850B1E81850A0E81850BFF4F5AFE3
:1005E0005FEA027C24BFB1E81850A0E8185044BF6D
:1005F00018C918C0BDE810405FEA827C24BF51F8DA
:10060000043B40F8043B08BF7047D20728BF31F8CD
:10061000023B48BF11F8012B28BF20F8023B48BF1E
:1006200000F8012B70474FF0000200B513469446C6
:100630009646203922BFA0E80C50A0E80C50B1F13A
:100640002001BFF4F7AF090728BFA0E80C5048BF4E
:100650000CC05DF804EB890028BF40F8042B08BFEC
:10066000704748BF20F8022B11F0804F18BF00F8E8
:10067000012B704770477047704710B500F09AFA29
:10068000006810BD10B5044600F094FA046010BD77
:100690002DE9F0470D4699469246044600F124089C
:1006A0000168880604D5E06921F01001216000E0AE
:1006B0000120A84201DD471B00E00027A1697A194B
:1006C00002EB0900081AA0612078C00602D4204677
:1006D000AFF30080002608E0D4E901211AF80600F3
:1006E0009047206A401C761C20624E45F4DB20783F
:1006F000C0060AD52046AFF3008006E0D4E9012108
:1007000030209047206A401C2062381EA7F1010764
:10071000F4DC07E0D4E9012118F805009047206ACD
:10072000401C2062281EA5F10105F3DC2046AFF332
:1007300000802078000602D50220BDE8F087012065
:10074000FBE770472DE9FF4F0C461E464FF0FF3781
:100750008BB0D2E90001DDF860800A908A46C1F3CF
:100760000A5505B93D46002108464FF00000BAF190
:10077000000F00F4400005DA00EB80004FF4400168
:1007800001EA50004FEA9059B9F1010F00DDB94676
:100790000A9850EA4A000ED044F61050A5F2FF35F0
:1007A00045432F14B8F1000F1ED07542291E1EDDDF
:1007B000C9F100021CE0B8F1010F4FF0000001D0B8
:1007C000302103E0F24305E02154401CB042FBDB42
:1007D00030460022002121540B99C1F80880C1E95C
:1007E00000200FB0BDE8F08FBD1B6D1CDEE74A4650
:1007F00000DA694206A800F067FA06AB93E8070042
:1008000003AB83E8070050460A9900F048FB8DE8E7
:100810000700A0F500501F3800900398002D0ADD56
:1008200042F21F014A460844002303A90390684688
:1008300000F0B1FD09E0A0F500504A461F38002342
:1008400003A90390684600F0BBFD8DE80700000493
:10085000000C03D04FF0FF30410800E01046B8F123
:10086000000F03D00022009215461EE0751E05D42D
:1008700000F0A4F9303262556D1EF9D5B34601225D
:10088000084302D000227F1C04E02078302801D1E8
:1008900000227F1E002A099784D01DE0112D07DA5F
:1008A00000F08CF9303262556D1C50EA0102F5D12E
:1008B000084302D00098C8B10EE00021681E05E090
:1008C000235C625C63542254401E491C8142F7DB66
:1008D000AB46A81B401E0990002004F80B000B98A3
:1008E000099AC0F80880C0E9002B7AE711264FF07A
:1008F000000857E72DE9F04F88460446D21D22F044
:10090000070191B0D1E90001CDE90A0104F06FFDC2
:1009100002460B98C00F01D02D2007E02068810708
:1009200001D52B2002E0202101EAC000032A099012
:1009300001D0072A05DB03464146204600F084F932
:100940000BE12078800601D5E06900E00620B8F1CF
:10095000650F814606D0B8F1660F18D0B8F1670F61
:1009600070D131E00020B9F1110F009001DB1123AB
:1009700001E009F101030AAA01A90CA8FFF7E2FEB0
:10098000DDE90C70002609F10105834647E00120EE
:100990004B4600904FF000470AAA01A90CA8FFF7A8
:1009A000D1FEDDE90DB00C995D46002610B909F1C4
:1009B00001000D18B9EB050003D4C0F1FF3609F1B1
:1009C0000105A5EB09002BE0B9F1010F01DA4FF0A9
:1009D00001090020B9F1110F0090484601DD1123F3
:1009E00000E003460AAA01A90CA8FFF7ABFEDDE967
:1009F0000C704D4600268346207800070AD4AB458C
:100A000000DA5D4601A8012D04DD411911F8011C31
:100A1000302907D04F4502DA17F1040F04DA01201C
:100A200082460FE06D1EEEE7002F02DCED1B3E4418
:100A300003E0781CA84200DD7D1CB81B00F1010A10
:100A40004FF000472078000703D4AA4501DB4FF0A0
:100A5000FF3A0021B7F1004F0DF143088DF8431024
:100A600024D002202B23002F01DA7F422D230A21DC
:100A7000021EA0F1010000DC5FB197FBF1FC97FBC7
:100A8000F1F201FB1C7C17460CF1300C08F801CD8B
:100A9000EEE7A8F1010003702188090501D5452181
:100AA00000E06521A0F1010800F8011C09980FA9D8
:100AB000A1EB0807FF1D00B10120411901EBEA700D
:100AC000A1693844081A401EA0612078C00602D4EB
:100AD0002046AFF30080099828B1D4E9012190475E
:100AE000206A401C20622078C00622D52046AFF341
:100AF00000801EE0002E04DBB34502DD01A8805D0E
:100B000000E03020D4E901219047206A401C206297
:100B1000761CAAF101005FEA000A0AD100F046F84B
:100B2000C0680168405CD4E901219047206A401CFC
:100B30002062281EA5F10105DCDC07E0D4E90121D3
:100B400018F8010B9047206A401C2062381EA7F15C
:100B50000107F3DC2046AFF30080032011B041E62B
:100B600001694A1C02610878704700B58FB0CDE971
:100B700001310021059105497944CDE90310114661
:100B80006846FFF74FFC0FB000BD0000E5FFFFFF18
:100B90000A6802F8010B0A607047D1E900239A4203
:100BA00002D2531C0B601070704700000048704761
:100BB00034060020004870471406002030B5B0F11C
:100BC0000A024FEA900E71F100034EEA817EB0EB0B
:100BD0000E0061EB91014FEA101E4EEA017E10EB10
:100BE0000E0041EB11114FEA102E4EEA016E10EB90
:100BF0000E0041EB11214FEA104E4EEA014E10EB70
:100C00000E0041EB1141401841F100014FEAD000C4
:100C100040EA41704FEAD10110EB80054FEA8104B0
:100C200044EA907444EB01046D1944EB0404521B34
:100C3000A3414FF0000348BF0A3200D530BD401C2D
:100C400041F1000130BD00002DE9F0411F4604468E
:100C500003260168072A01F4006004DB08B116A529
:100C600005E016A503E008B115A500E015A521F0E3
:100C700010002060A069C01EA0610FB1401EA061DD
:100C80002046AFF300804FB1D4E9012138469047A8
:100C9000206A401C2062C01C206206E0206AFAE73D
:100CA000D4E9012115F8010B9047761EF8D22046B1
:100CB000AFF30080BDE8F0814E414E006E616E00E2
:100CC000494E4600696E66002DE9F047814616469A
:100CD0008AB0354878440DC88DE80D003248784414
:100CE000801C03AC0DC884E80D0041F69B3008441D
:100CF000372190FBF1F290FBF1F5A5F1800501FBA6
:100D000012041B3C02D56442012000E00020DFF801
:100D100098A080460027FA44AAF1BE0A0EE0E00738
:100D20000AD03246684607EB470101230AEB8101EE
:100D300000F046FB8DE8070064107F1C002CEED10C
:100D4000194F7F44AE3F19E0E80715D007EB0410B8
:100D50000DF1180A90E80E008AE80E00C068F04213
:100D600001D1981908903246012306A903A800F082
:100D700027FB03AB83E807006D10641C002DE3D153
:100D80004FF0010332466946B8F1000F03A802D0C4
:100D900000F001FB01E000F013FBC9E90001C9F814
:100DA00008200AB0BDE8F0871452000000487047E0
:100DB000140600207546FFF7F9FFAE4605006946A8
:100DC000534620F00700854618B020B5FFF74AFAD1
:100DD000BDE820404FF000064FF000074FF000083C
:100DE0004FF0000B21F00701AC46ACE8C009ACE8BD
:100DF000C009ACE8C009ACE8C0098D46704710B521
:100E00000446AFF300802046BDE81040FFF715BA56
:100E10004FF0013C50F8042B51F8043B9A4221D189
:100E2000A2EB0C03934313EACC1317D150F8042B15
:100E300051F8043B9A4215D1A2EB0C03934313EAF9
:100E4000CC130BD150F8042B51F8043B9A4209D132
:100E5000A2EB0C03934313EACC13DBD04FF000005A
:100E6000704700BFD01A01BAB1FA81F101F0180140
:100E700022FA01F0CB40C1F12001DBB2C0B2C01AAE
:100E80002CFA01F3D11A914311EAC311E6D170474C
:100E900001491820ABBEFEE72600020070475FEA5A
:100EA000400C08BF91F0000F4FEA8C234FEAC1229B
:100EB00043EA51514FEA1C5018BF00F5F0404FEA89
:100EC000300018BF41F000415FEA6C5C00F02980FF
:100ED000BCF1FF3F08BF40F080407047130C06BFD5
:100EE00012044FF0100C4FF0000C130E04BF12024E
:100EF0000CF1080C130F04BF12010CF1040C930F3A
:100F000004BF92000CF1020CD30F04BF52000CF18D
:100F1000010C11464FF00002A0F11F00A0EB0C00E5
:100F2000704711F0004F08BF704731F000413FF4A7
:100F3000D5AF0B0C06BF09044FF0100C4FF0000C9E
:100F40000B0E04BF09020CF1080C0B0F04BF0901C2
:100F50000CF1040C8B0F04BF89000CF1020CCB0FB9
:100F600004BF49000CF1010CCCF12003A0EB0C00F4
:100F700022FA03F302FA0CF241EA030100F1010044
:100F8000704720F07F4C80EA030023F07F47ACEBF2
:100F9000070303F57C5300F0004003F1FF032DE944
:100FA00080494FEA154B09B44FEA144325EA0B4E2A
:100FB00024EA03480FF2042606EB132749083E787B
:100FC0005FEA320203FB0667C7F5000707FB06F678
:100FD0004FEA54374FEAD64606F1020607FB066C85
:100FE000CCF1005C4FEA1C472CEA074C07FB06F4E7
:100FF0000CFB06F504EB15464FEA961634BF0020AD
:101000004FF000404FEAD13706FB07FC4FEA1C4C7B
:101010000CFB0BF7D21B03FB0CF761EB07010CFB7E
:101020000EF7B0EB074072EB17420CFB08F734BF2A
:10103000A2EB0742B2EB074261EB17414FEA0C44C7
:101040004FEA910706FB07FC4FEA1C4C0CFB0BF721
:10105000B0EBC74072EB573203FB0CF734BFA2EB87
:10106000C742B2EBC74261EB57310CFB0EF7B0EB56
:10107000C70072EB57720CFB08F734BFA2EBC70234
:10108000B2EBC70261EB5771039F4FEA816141EAFE
:10109000921104EBCC044FEAD1374FEA826206FB8F
:1010A00007FC42EA90124FEA80604FEA1C4C0CFBAE
:1010B0000BF7D21B03FB0CF761EB07010CFB0EF7E0
:1010C000B0EB074072EB17420CFB08F734BFA2EB02
:1010D0000742B2EB074261EB17414FEA8C554FEAEA
:1010E000910704EB9C2406FB07FC4FEA1C4C0CFB0D
:1010F0000BF7B0EBC74072EB573203FB0CF734BF72
:10110000A2EBC742B2EBC74261EB57310CFB0EF7C3
:10111000B0EBC70072EB57720CFB08F734BFA2EBC1
:10112000C702B2EBC70261EB577115EB4C254FEAD2
:10113000816141EA92114FEA82624FEAD13742EA75
:10114000901206FB07FC44F100044FEA80604FEA6E
:101150001C4C0CFB0BF7D21B03FB0CF761EB0701DC
:101160000CFB0EF7B0EB074072EB17420CFB08F7D5
:1011700034BFA2EB0742B2EB074261EB174115EB1C
:101180001C154FEA813141EA92414FEA823242EA2C
:1011900090424FEA80304FEA0C7644F1000448EA6E
:1011A00003434EEA0B484FF0000EB2EB080C71EB14
:1011B000030724BF624639464EEB0E0E4FF0000B7C
:1011C0000018524149414BEB0B0BB2EB080C71EB91
:1011D00003077BF1000B24BF624639464EEB0E0E2F
:1011E0004FF0000B0018524149414BEB0B0BB2EB97
:1011F000080C71EB03077BF1000B24BF62463946F4
:101200004EEB0E0E51EA020718BF46F0010616EB30
:101210000E7655F1000254F1000103D5BDE88901B5
:10122000BDE80088BDE88901BDE80048B619524113
:1012300041EB0101A3F10103704780807F7E7D7C3B
:101240007B7A7978777676757473727171706F6E58
:101250006E6D6C6C6B6A6A69686867666665646403
:10126000636362616160605F5F5E5E5D5D5C5C5B8D
:101270005B5A5A59595858575756565555555454FC
:10128000535352525251515050504F4F4F4E4E4D5A
:101290004D4D4C4C4C4B4B4B4A4A4A4949494848A6
:1012A00048474747474646464545454444444443E6
:1012B00043434342424242414141002B9C4630D489
:1012C00077002BD01CB54FEA370703B44FF010005E
:1012D0004FF01001BAF1000F06D0BCF1000FDCBFD7
:1012E00040F0080040F008014FF000000FBCBDE8DE
:1012F00010400BF1010BBBF1010F08BF5FEA1707AC
:1013000022BF12F1010211F101014FF0004143F13E
:10131000000300F0004043EA00007047F9D357088B
:10132000D0E746EA064613F1400F4FEA16461FDDA6
:1013300013F1200FDFBF16430A46002120335B4222
:10134000BED0C3F1200746EA064602FA07F74FEA85
:10135000164646EA0706C3F1200722FA03F201FA0D
:1013600007F721FA03F14FF0000342EA0702A7E76B
:1013700046EA020646EA06464FEA164646EA0106ED
:10138000BCBF46EA0646360C4FF000034FF00002A1
:101390004FF0000194E72DE9804C9A46934670B4D3
:1013A00091E8380007C831EA400C48BF34EA430CE2
:1013B00003D5FFF7E6FDFFF780FFF0BCBDE8008C2A
:1013C0002DE9804C9A46934670B491E8380007C8DE
:1013D00010F0804F08BF13F0804F03D100F005F8E4
:1013E000FFF76BFFF0BCBDE8008C20F07F4780EA80
:1013F000030023F07F4C07EB0C03A3F57C5300F0B4
:101400000040A3F1FE0392F0000F00F0B38095F0CE
:10141000000F00F077802DE901494FEA11404FEAB3
:10142000144621EA004800FB06FC24EA064708FBB4
:1014300006F607FB08F800FB07F718EB06484CEB2D
:10144000164C4FEA124B18EB07484FEA15464CEB87
:10145000174022EA0B4E0BFB06FC25EA06470EFB63
:1014600006F607FB0EFE0BFB07F71EEB064E4CEBDA
:10147000164C4FF000061EEB074E4CEB174B18EBCB
:101480000B0840F1000018EB0E0B58EB000840F180
:1014900000008F1A4FF000013CBFC943661B14BF08
:1014A000B5EB040C00213CBFC943F61B4FEA1744BF
:1014B0004EEA8E0E27EA04454FEA1C4704FB0762FA
:1014C0002CEA074C05FB07F70CFB05F604FB0CFCAC
:1014D00016EB074642EB174216EB0C4642EB1C425A
:1014E0001BEB060658EB0202414146EA9E0601D577
:1014F000BDE80189B619524141EB0101A3F1010395
:10150000BDE801894FEA14454FEA114724EA054630
:1015100021EA074C05FB07F406FB07F70CFB06F175
:1015200005FB0CFC11EB074144EB17444FEA124753
:1015300011EB0C4144EB1C4422EA074C05FB07F27B
:1015400006FB07F70CFB06F605FB0CFC16EB074643
:1015500042EB174216EB0C4642EB1C456A1854F15D
:10156000000148BF7047B619524141EB0101A3F198
:101570000103704795F0000F37D04FEA11424FEA50
:10158000144721EA024624EA074C02FB07F106FB56
:1015900007F70CFB06F402FB0CFC14EB074441EBD1
:1015A00017414FEA154714EB0C4441EB1C4125EA67
:1015B000074C02FB07F506FB07F70CFB06F602FBE0
:1015C0000CFC16EB074645EB174516EB0C4645EBB6
:1015D0001C42121951F1000148BF7047B61952411F
:1015E00041EB0101A3F1010370474FEA14454FEAB3
:1015F000114724EA054621EA074C05FB07F106FBE3
:1016000007F70CFB06F24FF0000605FB0CFC12EB93
:10161000074241EB174112EB0C4251EB1C4148BF12
:101620007047921841EB0101A3F10103704700BF1D
:10163000FEE7000010B5024800F0F6FB10BD000008
:10164000B401002010B5024800F0EEFB10BD000010
:101650005401002010B5024800F0E6FB10BD000068
:10166000F40000200146087810381823B0FBF3F28C
:101670000848805CC865032A05D908686FF309002B
:10168000001D886503E008686FF309008865886DB0
:1016900070470000305E0008014600208A6A8B69AE
:1016A000CBB932B1012A0DD0022A03D0032A10D1BE
:1016B0000EE000BFCB6A03F08073B3F1807F00D1EE
:1016C000012007E0CB6AB3F1C07F00D1012001E027
:1016D00000E000BF34E08B69B3F5005F1AD132B18E
:1016E000012A07D0022A03D0032A11D10AE000BF41
:1016F00001200EE0CB6A03F08073B3F1807F00D14C
:10170000012006E0CB6AB3F1C07F00D1012000E0E8
:1017100000BF15E032B1012A05D0022A04D0032A05
:101720000CD103E000BF00BF012008E0CB6A03F04A
:101730008073B3F1807F00D1012000E000BF00BFC3
:10174000704730B50468246824F4802405682C6050
:10175000046863608468402C04D10468A260046853
:10176000E16003E00468A1600468E26030BD704796
:1017700000B52DED080B89B0DDED101A9DED0F1AA7
:10178000DDED0E0A9DED0D0A02F006FC8DED010A5D
:10179000CDED020A8DED031ACDED041ADDED0C3A04
:1017A0009DED0B3ADDED0A2A9DED092ADDED041AC7
:1017B0009DED031ADDED020A9DED010A02F074FDB4
:1017C0008DED050ACDED060A8DED071ACDED081A4F
:1017D000DDED081A9DED071ADDED060A9DED050AFF
:1017E00002F0F6FD8DED050ACDED060A8DED071A26
:1017F000CDED081A9DED050ADDED060A9DED071AEF
:10180000DDED081A11B000BD1FB50446D4B99FED37
:10181000121ADFED110A9FED100A03F0B3FB8DEDF4
:10182000000ACDED010A8DED021A9FED0B0A8DED38
:10183000030A9DED000ADDED010A9DED021ADDEDC2
:10184000031A1FBD94ED3F0AD4ED400A94ED411AEE
:10185000D4ED421AF5E70000000000000EB590B983
:101860009FED0C0A8DED000A9FED0A0A8DED010A2D
:101870009FED080A8DED020A9DED000ADDED010ADB
:101880009DED021A0EBD90ED3C0AD0ED3D0A90EDA3
:101890003E1AF7E7000000002DED040B83B09DED2C
:1018A000030ADFED0F0A20EE200A8DED000A9DED00
:1018B000040ADFED0B0A20EE200A8DED010A9DEDF2
:1018C000050ADFED070A20EE200A8DED020A9DEDE4
:1018D000000ADDED010A9DED021A07B07047000015
:1018E00035FA8E3C10B586B004460CB906B010BD72
:1018F000204602F067F904F1340002F063F968460B
:1019000002F038F91822694604F16800FEF759FE22
:1019100002F0EAFB84ED200AC4ED210A84ED221ACC
:10192000C4ED231A02F0E0FB84ED240AC4ED250A7D
:1019300084ED261AC4ED271A02F0D6FB84ED280A9E
:10194000C4ED290A84ED2A1AC4ED2B1A02F0CCFB4F
:1019500084ED2C0AC4ED2D0A84ED2E1AC4ED2F1A45
:1019600002F0C2FB84ED300AC4ED310A84ED321A74
:10197000C4ED331A02F0B8FB84ED340AC4ED350A25
:1019800084ED361AC4ED371A02F0AEFB84ED380A46
:10199000C4ED390A84ED3A1AC4ED3B1A9FED110AE1
:1019A00084ED3C0A9FED0F0A84ED3D0A9FED0D0A80
:1019B00084ED3E0A9FED0B1ADFED0A0A9FED090A3E
:1019C00003F0E0FA84ED3F0AC4ED400A84ED411AC9
:1019D0009FED040A84ED420A002084F80C0100BF48
:1019E00084E700000000000070B5044604B970BD33
:1019F000204600F06DF804F18000014691E82C00CB
:101A0000C968C0E909350262C16294E82E0030302D
:101A10002EC0403804F134012EC940302EC00120C0
:101A200084F80C01204600F053F800BFDFE733B51F
:101A30002DED080B2DED028B83B004460D46B0EE64
:101A4000438A24B903B0BDEC028B0AB030BDB5EEB9
:101A5000C08AF1EE10FA00D8F4E79DED071ADDED2B
:101A6000060A9DED050AFFF717FF8DED000ACDED83
:101A7000010A8DED021A9DB904F16801B0EE483AF1
:101A8000DDED0A2A9DED092ADDED081A9DED021A09
:101A9000DDED010A9DED000A204602F0CDF815E0CB
:101AA000012D13D104F16801B0EE483ADDED0A2AA8
:101AB0009DED092ADDED081A9DED021ADDED010A02
:101AC0009DED000A04F1340002F0B6F800BFB9E75A
:101AD00030B58DB004460CB90DB030BD94E80F00A0
:101AE00009AD0FC5D4E90F13D4E90D2006AD0BC520
:101AF0000592DDED0C1A9DED0B1ADDED0A0A9DED48
:101B0000090A02F065FC8DED090ACDED0A0A8DED9A
:101B10000B1ACDED0C1ADDED081A9DED071ADDED5F
:101B2000060A9DED050A02F053FC8DED050ACDED88
:101B3000060A8DED071ACDED081ADDED083A9DED88
:101B4000073ADDED062A9DED052ADDED0C1A9DED27
:101B50000B1ADDED0A0A9DED090AFFF709FE84ED77
:101B6000200AC4ED210A84ED221AC4ED231AD4ED13
:101B70002B1A94ED2A1AD4ED290A94ED280A02F0C2
:101B80000BFA8DED010ACDED020A8DED031ACDEDB4
:101B9000041AD4ED233A94ED223AD4ED212A94ED9F
:101BA000202ADDED041A9DED031ADDED020A9DEDFC
:101BB000010A02F079FB84ED240AC4ED250A84EDC4
:101BC000261AC4ED271AD4ED271A94ED261AD4ED5F
:101BD000250A94ED240A02F0FBFB84ED240AC4EDEF
:101BE000250A84ED261AC4ED271A94F80C01002862
:101BF0007DD0D4ED2F1A94ED2E1AD4ED2D0A94ED4C
:101C00002C0A02F0C9F98DED010ACDED020A8DED25
:101C1000031ACDED041ADDED0C3A9DED0B3ADDED26
:101C20000A2A9DED092ADDED041A9DED031ADDED6A
:101C3000020A9DED010A02F037FB84ED340AC4ED7F
:101C4000350A84ED361AC4ED371AD4ED371A94EDFF
:101C5000361AD4ED350A94ED340A02F0B9FB84ED5E
:101C6000340AC4ED350A84ED361AC4ED371AD4EDC2
:101C7000331A94ED321AD4ED310A94ED300A02F0A1
:101C80008BF98DED010ACDED020A8DED031ACDED34
:101C9000041ADDED083A9DED073ADDED062A9DEDCB
:101CA000052ADDED041A9DED031ADDED020A9DED16
:101CB000010A02F0F9FA84ED380AC4ED390A84ED1C
:101CC0003A1AC4ED3B1AD4ED3B1A94ED3A1AD4ED0E
:101CD000390A94ED380A02F07BFB84ED380AC4ED32
:101CE000390A84ED3A1AC4ED3B1A0BE0FFE704F120
:101CF000800009A92EC950302EC0603805A92EC910
:101D000060302EC0D4ED271A94ED261AD4ED250AA2
:101D100094ED240A02F076FC84ED3C0AC4ED3D0A01
:101D200084ED3E1AD4ED271A94ED261AD4ED250A37
:101D300094ED240A02F0B0FB84ED3F0AC4ED400AA2
:101D400084ED411AC4ED421A00BFC5E672B600BF69
:101D5000FEE770B50446A56D00F040FB064694F81A
:101D60003500022808D08020606500BF002084F87C
:101D7000340000BF012070BD2068006820F016000C
:101D8000216808602068406920F08000216848616F
:101D9000206C08B9A06C28B12068006820F0080009
:101DA000216808602068006820F001002168086050
:101DB00010E000F013FB801B05280BD92020606584
:101DC000032084F8350000BF002084F8340000BFF1
:101DD0000320D0E72068006800F001000028E8D167
:101DE00094F85C103F208840A860012084F83500FA
:101DF00000BF002084F8340000BF00BFBBE70146ED
:101E000091F83500022803D08020486501207047F2
:101E1000052081F835000868006820F001000A6894
:101E200010600020F3E70000F8B5044600200090A1
:101E30008C4800684FF41651B0FBF1F7A56D2E6881
:101E400094F85C1008208840304098B12068006801
:101E500000F0040070B12068006820F004002168E0
:101E6000086094F85C1008208840A860606D40F01D
:101E70000100606594F85C1001208840304068B132
:101E80002068406900F0800040B194F85C100120A7
:101E90008840A860606D40F00200606594F85C10B6
:101EA00004208840304068B12068006800F00200DB
:101EB00040B194F85C1004208840A860606D40F048
:101EC0000400606594F85C1010208840304078B3BE
:101ED0002068006800F0080050B394F85C101020EF
:101EE0008840A8602068006800F4802080B12068E5
:101EF000006800F4002028B9206CC8B12046216C8D
:101F0000884715E0A06C98B12046A16C88470FE087
:101F10002068006800F4807028B92068006820F00C
:101F2000080021680860206C10B12046216C8847A9
:101F300094F85C10202088403040002865D020684C
:101F4000006800F0100000285FD094F85C1020209A
:101F50008840A86094F83500052828D120680068DA
:101F600020F01600216808602068406920F0800099
:101F700021684861206C08B9A06C28B1206800680D
:101F800020F008002168086094F85C103F20884029
:101F9000A860012084F8350000BF002084F83400D8
:101FA00000BF206D10B12046216D8847F8BD206824
:101FB000006800F4802080B12068006800F40020F0
:101FC00028B9606C10B12046616C88471DE0E06B59
:101FD000D8B12046E16B884717E02068006800F41C
:101FE000807068B92068006820F0100021680860DF
:101FF000012084F8350000BF002084F8340000BFC1
:10200000E06B10B12046E16B8847606D38B3606DBE
:1020100000F00100F0B1052084F835002068006868
:1020200020F001002168086000BF0098401C00906B
:10203000B84200D905E02068006800F001000028DF
:10204000F3D100BF012084F8350000BF002084F8E0
:10205000340000BFE06C10B12046E16C884700BF3F
:10206000A4E70000180000202DE9F04104460025F7
:1020700000F0B4F9074614B90120BDE8F081606AA8
:1020800000B100BF022084F8350000BF002084F8B2
:10209000340000BF2068006820F00100216808605B
:1020A0000AE000F09BF9C01B052805D920206065D7
:1020B000032084F83500E0E72068006800F00100A4
:1020C0000028EED12068056821480540D4E90101C7
:1020D0000843E16808432169084361690843A1692D
:1020E0000843E1690843216A08430543606A0428FC
:1020F00003D1D4E90B01084305432068056020683B
:10210000456925F00705606A0543606A04280DD11A
:10211000A06A0543E06A48B12046FFF7BDFA28B13E
:1021200040206065012084F83500A6E720684561FD
:102130002046FFF797FA064694F85C103F20884047
:10214000B06000206065012084F83500002094E72D
:102150003F8010F02DE9F04704460D4616461F4615
:102160004FF00008D4F8589000BF94F834000128CC
:1021700002D10220BDE8F087012084F8340000BFBE
:1021800094F83500012825D1022084F8350000207C
:1021900060653B46324629462046FFF7D2FA94F85E
:1021A0005C103F208840C9F808002068006840F0B3
:1021B000160021680860206C28B12068006840F093
:1021C0000800216808602068006840F0010021686C
:1021D000086006E000BF002084F8340000BF4FF024
:1021E00002084046C6E70000F8B502460B46002547
:1021F000002400200021D6E0012606FA01F51E6821
:1022000006EA0504AC4274D11E7906F00306012EDD
:1022100004D01E7906F00306022E13D190684F00F9
:102220000326BE40B0434F00DE68BE40304390609E
:10223000506801268E40B0431E79C6F300168E40CA
:10224000304350601E7906F00306032E09D0D06893
:102250004F000326BE40B0434F009E68BE4030434F
:10226000D0601E7906F00306022E13D1CF0802F1CA
:10227000200656F827004E07F70E0F26BE40B04343
:102280004F07FF0E1E69BE403043CF0802F1200603
:1022900046F8270010684F000326BE40B0431E7961
:1022A00006F003064F00BE40304310605E6806F43F
:1022B0004036002E76D000BF002600963C4E366891
:1022C00046F480463A4F3E603E46366806F4804605
:1022D000009600BF00BF374E8F0856F827008E07C4
:1022E000370F0F26BE40B043334EB24202D1002614
:1022F00024E057E0314EB24201D101261EE0304EBB
:10230000B24201D1022619E02E4EB24201D103267B
:1023100014E02D4EB24201D104260FE02B4EB24202
:1023200001D105260AE02A4EB24201D1062605E077
:10233000284EB24201D1072600E008268F073F0F42
:10234000BE4030431B4E8F0846F82700224E3068AF
:10235000A0435E6806F4801606B120431E4E30602E
:10236000361D3068A0435E6806F4001606B12043AF
:10237000194E361D3060184E361F3068A0435E6817
:1023800006F4003606B12043134E361F3060361F68
:102390003068A0435E6806F4803606B120430E4ED6
:1023A000083E3060491C1029FFF426AFF8BD00003C
:1023B0004438024008380140000002400004024056
:1023C00000080240000C02400010024000140240CD
:1023D00000180240001C0240083C0140014800680F
:1023E000704700000C00002003480068034909788A
:1023F00008440149086070470C00002014000020C8
:1024000010B50D48006840F400700B49086008469C
:10241000006840F4806008600846006840F48070FE
:102420000860032000F0A6F80F2000F007F800F085
:102430002BF8002010BD0000003C024070B504469F
:102440000E4800784FF47A71B1FBF0F00C4909683E
:10245000B1FBF0F5284600F02FFC08B1012070BD5B
:10246000102C07D200222146501E00F045F80548E6
:10247000046001E00120F2E70020F0E714000020F2
:10248000180000201000002008B500BF00200090B8
:102490000E48006840F480400C4908600846006817
:1024A00000F48040009000BF00BF00BF00200090FB
:1024B000081F006840F08050091F08600846006847
:1024C00000F08050009000BF00BF08BD44380240BB
:1024D0000146084600280DDB00BF00BF00F01F03C7
:1024E00001229A4043099B0003F1E023C3F8002135
:1024F00000BF00BF00BF70472DE9F05F80460D466A
:102500001646002702F09EFF074639462A46334604
:1025100001F00700C0F1070ABAF1040F02D94FF029
:10252000040A01E0C0F1070AD14600F1040ABAF139
:10253000070F02D24FF0000A01E0A0F1030AD446CF
:102540004FF0010A0AFA09FAAAF1010A0AEA020A94
:102550000AFA0CFA4FF0010B0BFA0CFBABF1010B72
:102560000BEA030B4AEA0B042146404602F072FFD5
:10257000BDE8F09F00BF00F00702064B19684FF658
:10258000FF031940044B0B4343EA0221014B19603E
:1025900000BF70470CED00E00000FA0570B504467E
:1025A0000D460CB9012070BD5848006800F00700C6
:1025B000A84209D255490D700846006800F007008E
:1025C000A84201D00120EEE7207800F002000228A6
:1025D0001DD1207800F00400042805D14C48006883
:1025E00040F4E0504A490860207800F008000828CC
:1025F00005D14748006840F46040454908604448B8
:10260000006820F0F000A168084341490860207884
:1026100000F00100A8B36068012807D13C480838E1
:102620000068C0F34040B8B90120BCE760680228E8
:1026300002D06068032807D1354808380068C0F325
:10264000406048B90120AEE7314808380068C0F35F
:10265000400008B90120A6E72D48006820F00300DB
:10266000616808432A490860FFF7B8FE064609E09A
:10267000FFF7B4FE801B41F28831884202D9032063
:1026800091E707E02248006800F00C006168B0EBB9
:10269000810FEDD11D48006800F00700A84209D95C
:1026A0001A490D700846006800F00700A84201D0E2
:1026B000012078E7207800F00400042807D11448AE
:1026C000006820F4E050E168084311490860207870
:1026D00000F00800082808D10D48006820F4604088
:1026E000216940EAC1000A49086000F03FF8084942
:1026F0000968C1F30311074A515CC84006490860E4
:1027000006480068FFF79AFE00204CE7003C0240B4
:1027100008380240385E0008180000201000002031
:1027200001480068704700001800002000B5FFF75E
:10273000F7FF04490968C1F38221034A515CC8408C
:1027400000BD000008380240485E000800B5FFF7F1
:10275000E7FF04490968C1F34231034A515CC840AC
:1027600000BD000008380240485E00082DE9F0472F
:10277000002400250026A1462548006800F00C0032
:1027800020B1042805D008283AD105E0DFF884906C
:1027900039E0DFF8849036E01D48001F006800F043
:1027A0003F041B48001F006800F4800078B11A48FD
:1027B0001749091F0968C1F38811A0FB0170014680
:1027C000224600233846FDF75FFD05460EE011481E
:1027D0000F49091F0968C1F38811A0FB0170014668
:1027E000224600233846FDF74FFD05460848001FE6
:1027F0000068C0F30140401C4600B5FBF6F902E05A
:10280000DFF8109000BF00BF4846BDE8F087000029
:10281000083802400024F40000127A00F8B504469B
:102820000CB90120F8BD207800F00100002874D018
:10283000F948006800F00C0004280DD0F648006844
:1028400000F00C00082813D1F348001F006800F4C2
:102850008000B0F5800F0BD1EF4808380068C0F356
:102860004040002859D06068002856D10120D9E79F
:1028700000BF6068B0F5803F08D1E74808380068BD
:1028800040F48030E449083908601EE06068B0F523
:10289000A02F0DD1E0480838006840F48020DE49C0
:1028A000083908600846006840F4803008600CE091
:1028B000D9480838006820F48030D74908390860C2
:1028C0000846006820F48020086000BF606890B16E
:1028D000FFF784FD054606E0FFF780FD401B6428F6
:1028E00001D903209EE7CC4808380068C0F3404077
:1028F0000028F1D011E0FFF771FD054606E0FFF773
:102900006DFD401B642801D903208BE7C2480838BD
:102910000068C0F340400028F1D1207800F00200A8
:1029200002285FD1BC48006800F00C0058B1BA48DA
:10293000006800F00C0008281CD1B748001F006890
:1029400000F48000B0B9B44808380068C0F3400013
:1029500020B1E068012801D0012063E7AE480838C3
:10296000006820F0F800216940EAC100AA4908394E
:10297000086037E0E06800B30120A8490860FFF76D
:102980002DFD054606E0FFF729FD401B022801D971
:10299000032047E7A04808380068C0F3400000283B
:1029A000F1D09D480838006820F0F800216940EA1D
:1029B000C10099490839086014E00020974908606F
:1029C000FFF70CFD054606E0FFF708FD401B022857
:1029D00001D9032026E7904808380068C0F340007A
:1029E0000028F1D1207800F0080008282CD1606977
:1029F000A8B101208A490860FFF7F0FC054606E00F
:102A0000FFF7ECFC401B022801D903200AE78248AB
:102A10006C300068C0F340000028F1D014E00020C2
:102A20007F490860FFF7DAFC054606E0FFF7D6FCB1
:102A3000401B022801D90320F4E677486C30006877
:102A4000C0F340000028F1D1207800F004000428F1
:102A500070D1002770483830006800F0805090B97D
:102A600000BF002000906C483830006840F0805073
:102A70006949383108600846006800F080500090CD
:102A800000BF00BF01276748006800F48070B0B93C
:102A90006448006840F4807062490860FFF79EFC5B
:102AA000054606E0FFF79AFC401B022801D90320E7
:102AB000B8E65C48006800F480700028F2D000BFDF
:102AC000A068012808D154486830006840F001002F
:102AD0005149683108601DE0A06805280DD14E48B5
:102AE0006830006840F004004B49683108600846CF
:102AF000006840F0010008600CE04748683000685A
:102B000020F001004449683108600846006820F060
:102B10000400086000BFA068A8B1FFF75FFC05468D
:102B200009E0FFF75BFC401B41F28831884202D983
:102B3000032077E626E0384868300068C0F340009C
:102B40000028EED013E0FFF749FC054608E0FFF748
:102B500045FC401B41F28831884201D9032061E6DF
:102B60002D4868300068C0F340000028EFD1012FE5
:102B700007D129483830006820F080502649383184
:102B8000086000BFA069002845D02348006800F015
:102B90000C0008285DD0A069022845D100201F49FB
:102BA0000866FFF71BFC054606E0FFF717FC401B15
:102BB000022801D9032035E6174808380068C0F319
:102BC00040600028F1D1D4E907010843616A40EA76
:102BD00081110122A06AC2EB500041EA00412C2081
:102BE000005D41EA00600C49091F086001200B49A3
:102BF0000866FFF7F3FB054606E0FFF7EFFB401B17
:102C0000022801D903200DE6034808380068C0F304
:102C100040600028F1D049E00838024000004742F7
:102C2000800E474200700040002021490866FFF7EF
:102C3000D5FB054606E0FFF7D1FB401B022801D972
:102C40000320EFE51B480068C0F340600028F2D184
:102C50002CE0A069012800D1E4E51648001D0668B3
:102C6000A069012820D006F48001E06981421BD1CF
:102C700006F03F01206A814216D147F6C07030400D
:102C8000616AB0EB811F0FD106F440310122A06AC6
:102C9000C2EB5000B1EB004F06D106F070612C2062
:102CA000005DB1EB006F01D00120BBE50020B9E56C
:102CB000000047420038024070B504462546681EB1
:102CC000B0F1807F01D301200FE0681E4FF0E021BA
:102CD00048610F214FF0FF3002F0BCFB00204FF0A5
:102CE000E021886107200861002070BDF8B5044626
:102CF0000D46164694F8420020282DD105B10EB994
:102D00000120F8BD0120206300206063324629467F
:102D1000204602F03BF80746206B012819D100BF7E
:102D200000200090206800680090206840680090B3
:102D300000BF00BF00BF00BF21680C3151E8001F79
:102D400041F0100021680C3141E80002002AF3D163
:102D500000E001273846D4E70220D2E770B50546E7
:102D60000C461448854209D1002C03DD2146124847
:102D700000F0E4FC0F4800F0F3FC1AE00F48854235
:102D80000AD1002C04DD22460D490E4802F0E0F97C
:102D90000A4800F0E5FC0CE00B48854209D1002C04
:102DA00004DD224609490A4802F0D2F9064800F03B
:102DB000D7FC70BD1C00002014040020640000201B
:102DC0001402002054040020AC0000201403002052
:102DD000AC04002010B504460648844205D00648DD
:102DE000844202D00548844202D1204600F0B8FC5B
:102DF00010BD00001C00002064000020AC0000207A
:102E00002DE9F84F0446206805682068C6682068E8
:102E100047694FF00009CA4605F00F09B9F1000FE4
:102E20000AD105F0200038B106F0200020B120467C
:102E300001F018FEBDE8F88FB9F1000F7CD007F063
:102E4000010018B906F49070002875D005F0010053
:102E500030B106F4807018B1606C40F0010060641D
:102E600005F0040030B107F0010018B1606C40F0CB
:102E70000200606405F0020030B107F0010018B1F3
:102E8000606C40F00400606405F0080048B106F092
:102E9000200010B907F0010018B1606C40F0080084
:102EA0006064606C002846D005F0200028B106F070
:102EB000200010B1204601F0D5FD20684069C0F324
:102EC000801A606C00F0080010B9BAF1000F2DD024
:102ED000204601F06EFD2068406900F04000402867
:102EE00020D100BF00BF2168143151E8001F21F03C
:102EF00040002168143141E80002002AF3D100BFEC
:102F0000E06B50B17F48E16B0865E06BFEF777FF3F
:102F100088B1E06B016D88470DE02046FFF75AFF4E
:102F200009E009E02046FFF755FF04E02046FFF7DF
:102F300051FF002060647DE7206B012878D105F007
:102F40001000002874D006F010000028FAD000BF4E
:102F50000020009020680068009020684068009081
:102F600000BF00BF2068406900F04000402870D1D9
:102F7000E06B006840681FFA80F8B8F1000F58D085
:102F8000A08D404555DDA4F82E80E06BC069B0F5FA
:102F9000807F43D000BF00BF21680C3151E8001F83
:102FA00021F4807021680C3141E80002002AF3D13D
:102FB00000BF00BF00BF2168143151E8001F21F09D
:102FC00001002168143141E80002002AF3D100BF5A
:102FD00000BF00BF2168143151E8001F21F04000FC
:102FE0002168143141E80002002AF3D100BF2020FB
:102FF00084F842000020206300BF00BF21680C312C
:1030000051E8001F21F0100021680C3141E8000256
:10301000002AF3D100BFE06BFEF79BFE0220606345
:10302000A08DE28D801A81B22046FFF797FE0EE058
:1030300052E0A08D40450AD1E06BC069B0F5807FB9
:1030400005D102206063A18D2046FFF787FEF1E6DF
:10305000FFE7A08DE18D401A1FFA80F8E08DD0B314
:10306000B8F1000F37D000BF00BF21680C3151E824
:10307000001F21F4907021680C3141E80002002A01
:10308000F3D100BF00BF00BF2168143151E8001F19
:1030900021F001002168143141E80002002AF3D137
:1030A00000BF202084F842000020206300BF00BF42
:1030B00021680C3151E8001F21F0100021680C310B
:1030C00041E80002002AF3D100BF022060634146BC
:1030D0002046FFF743FEADE605F0800030B106F074
:1030E000800018B1204601F0BDFEA3E605F04000C7
:1030F00030B106F0400018B1204601F090FC99E68E
:1031000000BF97E67948000810B504460CB90120C5
:1031100010BDA06900B100E000BF94F8410028B9DB
:10312000002084F84000204600F02AF8242084F88B
:1031300041002068C06820F400502168C860204623
:1031400001F00EFD2068006920F4904021680861BC
:103150002068406920F02A00216848612068C06822
:1031600040F400502168C86000206064202084F88A
:10317000410084F842000020606300BFC8E70000FF
:1031800010B586B00446142101A8FDF74CFA8B490E
:103190002068884256D100BF00200090884800680F
:1031A00040F01000864908600846006800F01000F2
:1031B000009000BF00BF00BF00200090804814387E
:1031C000006840F001007E49143908600846006834
:1031D00000F00100009000BF00BF4FF4C0600190FC
:1031E0000220029000200390032004900720059005
:1031F00001A97448FEF7F8FF7348744908604FF05E
:1032000000604860002171488160C1604FF48061B6
:103210000161002141618161C16101624162FEF78A
:1032200023FF08B1FEF792FD00BF6848E0638463A6
:1032300000BF002211462520FFF75EF92520FFF789
:1032400047F9B8E062492068884257D100BF0020A2
:1032500000905B48001F006840F400305849091F87
:1032600008600846006800F40030009000BF00BF0E
:1032700000BF0020009052481438006840F0010060
:103280004F49143908600846006800F001000090BA
:1032900000BF00BF0C20019002200290002003908C
:1032A000032004900720059001A94648FEF79CFFE3
:1032B0004848494908604FF000604860002146488E
:1032C0008160C1604FF480610161002141618161D1
:1032D000C16101624162FEF7C7FE08B1FEF736FD2B
:1032E00000BF3D48E063846300BF002211462620F2
:1032F000FFF702F92620FFF7EBF85CE0374920687A
:10330000884258D100BF002000902D48001F00685F
:1033100040F480202A49091F08600846006800F42C
:103320008020009000BF00BF00BF00200090244814
:103330001438006840F0020021491439086008463A
:10334000006800F00200009000BF00BF4FF4406032
:103350000190022002900020039003200490072097
:10336000059001A91E48FEF73FFF1A4860381D4925
:1033700008604FF00060486000211A488160C16019
:103380004FF480610161002141618161C16101628D
:103390004162FEF769FE08B1FEF7D8FC00BF114894
:1033A000E063846300BF002211462720FFF7A4F8E2
:1033B0002720FFF78DF806B010BD00000010014077
:1033C000443802400000024040640240F400002003
:1033D0000044004088600240540100200048004042
:1033E00000040240B4010020704770472DE9F84FF7
:1033F00004460E46174699464FF0000A94F84100DD
:10340000202850D106B117B90120BDE8F88F00205F
:103410006064212084F84100FEF7E0FF8246A78423
:10342000E784A068B0F5805F04D1206910B9002559
:10343000B04602E035464FF000081EE05346002239
:1034400080212046CDF8009001F03CFD20B12020E5
:1034500084F841000320D8E745B9B8F80000C0F36C
:1034600008002168486008F1020803E02878216814
:1034700048606D1CE08C401EE084E08C0028DDD1AB
:103480005346002240212046CDF8009001F01AFD5D
:1034900020B1202084F841000320B6E7202084F8E2
:1034A00041000020B1E70220AFE7704700BFFEE710
:1034B00010B5164801F030FE154801F02DFE1548F4
:1034C000FEF710FA00201449086014490860FEF75E
:1034D00085FF1349086000F0A3F912A000F01EF95F
:1034E00019A000F01BF920A000F018F924A000F0AA
:1034F00015F929A000F012F92D4800F00FF92DA0C0
:1035000000F00CF933A000F009F910BD54040020BC
:10351000AC0400200405002000000020040000206E
:10352000080000200D0A3D3D3D3D3D3D3D3D3D3DFA
:103530003D3D3D3D3D3D3D3D3D3D3D3D3D3D3D3DBB
:103540003D3D3D3D0D0A000053544D33322044753E
:10355000616C20494D55204174746974756465200F
:1035600053746172740D0A00555341525431202D29
:103570003E205043202F204D41544C41420D0A0023
:10358000555341525432202D3E2068616E642049CB
:103590004D550D0A00000000555341525433202D63
:1035A0003E2061726D2020494D550D0A000000003B
:1035B000045F0008436F6D6D616E643A2073656E41
:1035C0006420277A2720746F20736574207A6572CF
:1035D0006F0D0A003D3D3D3D3D3D3D3D3D3D3D3D89
:1035E0003D3D3D3D3D3D3D3D3D3D3D3D3D3D3D3D0B
:1035F0003D3D0D0A0D0A000010B52DED088BADF50F
:10360000007DFEF7EBFE044635480068201A1428BA
:1036100004D20DF5007DBDEC088B10BD3048046070
:103620003048FEF71BF98DED7D0ACDED7E0A8DED5C
:103630007F1A2C48FEF7E8F88DED790ACDED7A0A6D
:103640008DED7B1ACDED7C1A72B65822264963A8FF
:10365000FCF7B7FF582225494DA8FCF7B2FF62B628
:103660009DED7C0A10EE101A084602F069FB41EC51
:10367000180B9DED7F0A10EE101A084602F060FB51
:1036800041EC190B9DED7E0A10EE101A084602F06F
:1036900057FB41EC1A0B9DED7D0A10EE101A0846FF
:1036A00002F04EFB41EC1B0B5E9B749A779961987C
:1036B000CDE90823CDE90A108DED068B8DED049B35
:1036C0008DED02AB8DED00BB09A24FF480710DA80A
:1036D000FCF752FE0DA800F021F800BF99E70000AA
:1036E000080000200405002054040020AC04002041
:1036F0004154542C252E33662C252E33662C252E32
:1037000033662C252E33662C256C752C256C752C78
:10371000256C752C256C750D0A00000070B50446EB
:103720002046FCF72FFF85B264232A462146024833
:10373000FFF75CFE70BD00001C00002070B5054660
:103740000E46002409E0285D7A2802D0285D5A2818
:1037500001D100F055F8601C84B2B442F3DB70BDB7
:1037600010B504462048844211D140221F49FFF77A
:10377000BDFA1D48C06BF8B11B48C06B00680068FB
:1037800020F008001849C96B096808602AE0184849
:10379000844212D14FF480721649FFF7A7FA1448F9
:1037A000C06B48B11248C06B0068006820F0080088
:1037B0000F49C96B0968086014E00F48844211D1B1
:1037C0004FF480720D49FFF791FA0B48C06B48B176
:1037D0000948C06B0068006820F008000649C96B02
:1037E0000968086010BD00001C00002014040020BF
:1037F0006400002014020020AC000020140300200C
:1038000010B50348FEF7F0F802A0FFF787FF10BDE0
:10381000040500205A45524F205345540D0A00001C
:1038200010B540221B491C48FFF760FA1A48C06BCC
:1038300048B11948C06B0068006820F008001649BC
:10384000C96B096808604FF4807214491448FFF787
:103850004DFA1348C06B48B11148C06B006800684E
:1038600020F008000E49C96B096808604FF48072A7
:103870000C490D48FFF73AFA0B48C06B48B10A48AB
:10388000C06B0068006820F008000749C96B096830
:10389000086010BD140400201C0000201402002049
:1038A0006400002014030020AC00002010B500F0DC
:1038B00003F8FFF7A1FE10BD00B5B3B072B65822F1
:1038C0003A491DA8FCF77DFE5822394907A8FCF7A4
:1038D00078FE62B637492E98096888422DD09DED52
:1038E000230A8DED040A9DED240A8DED050A9DED58
:1038F000250A8DED060A9DED200A8DED010A9DED4C
:10390000210A8DED020A9DED220A8DED030A9FED3D
:103910002A3ADDED032A9DED022ADDED011A9DED27
:10392000061ADDED050A9DED040A00212348FEF785
:103930007EF820492E98086000BF21491898096830
:1039400088422DD09DED0D0A8DED040A9DED0E0AE5
:103950008DED050A9DED0F0A8DED060A9DED0A0A13
:103960008DED010A9DED0B0A8DED020A9DED0C0A0D
:103970008DED030A9FED103ADDED032A9DED022A3D
:10398000DDED011A9DED061ADDED050A9DED040A37
:1039900001210A48FEF74BF809491898086000BF52
:1039A0000648FEF795F833B000BD0000540400202F
:1039B000AC040020000000200AD7A33B040500202F
:1039C0000400002008B500BF002000901A480068DD
:1039D00040F40010184908600846006800F4001020
:1039E000009000BF00BF00BF0020009008460068A4
:1039F00040F4800008600846006800F480000090F1
:103A000000BF00BF002211460C20FEF775FD0C2000
:103A1000FEF75EFD002211461020FEF76DFD10201E
:103A2000FEF756FD002211463A20FEF765FD3A20CA
:103A3000FEF74EFD08BD00003038024008B500BF5B
:103A4000002000901548006840F08000134908608D
:103A50000846006800F08000009000BF00BF00BF73
:103A6000002000900846006840F001000860084609
:103A7000006800F00100009000BF00BF00BF002000
:103A800000900846006840F00200086008460068A0
:103A900000F00200009000BF00BF08BD30380240B7
:103AA00010B50B480B4908604FF4E1304860002125
:103AB00008488160C16001610C2141610021816180
:103AC000C161FFF721FB08B1FEF740F910BD00000E
:103AD000001001401C00002010B50B480B49086085
:103AE0004FF4E1304860002108488160C160016105
:103AF0000C21416100218161C161FFF705FB08B123
:103B0000FEF724F910BD00000044004064000020CE
:103B100010B50B480B4908604FF4E13048600021B4
:103B200008488160C16001610C214161002181610F
:103B3000C161FFF7E9FA08B1FEF708F910BD00000E
:103B400000480040AC000020F0EE401AF4EEE01A0D
:103B5000F1EE10FA02D2B0EE600A7047F4EEC11A2C
:103B6000F1EE10FA02DDB0EE410AF6E7B0EE610ABE
:103B7000F3E7000010B586B00446B7EE080A8DEDF5
:103B8000000A9FED0D0A8DED010A9FED0C0A8DEDE7
:103B9000020AB7EE000A8DED030A9FED090A8DEDCA
:103BA000040AB6EE000A8DED050A18226946204681
:103BB000FCF707FD06B010BD00000000C3F51C4176
:103BC0000000F04210B5044604B910BD00F08CFAB4
:103BD00084ED000AC4ED010A84ED021AC4ED031A53
:103BE0009FED141ADFED130A9FED120A01F0CAF9D6
:103BF00084ED040AC4ED050A84ED061A9FED0D0A52
:103C000084ED070A9FED0B1ADFED0A0A9FED090A02
:103C100001F0B8F984ED080AC4ED090A84ED0A1A26
:103C20009FED040A84ED0B0A9FED020A84ED0C0A55
:103C300000BFCAE70000000033B52DED080B2DEDE5
:103C4000088B93B00546F0EE438A0C4605B124B9C3
:103C500013B0BDEC088B0AB030BDF5EEC08AF1EEB2
:103C600010FA00D8F4E7D5ED031A95ED021AD5ED58
:103C7000010A95ED000A00F0ABFB8DED0F0ACDEDCA
:103C8000100A8DED111ACDED121A9DED201ADDED01
:103C90001F0A9DED1E0A01F0BEF9B0EE409A9DED9F
:103CA0001D1ADDED1C0A9DED1B0A01F0B4F9B0EE02
:103CB00040AA9FEDA90A6AEE009A85ED0B9AC5ED20
:103CC0000C9A9FEDA68A9FEDA51ADFEDA40A9FED41
:103CD000A30A01F057F98DED0C0ACDED0D0A8DED1B
:103CE0000E1A9FED9F0AB4EEC09AF1EE10FA6ADD4B
:103CF0009DED201ADDED1F0A9DED1E0A01F0A4F9CD
:103D00008DED030ACDED040A8DED051ADDED121AD5
:103D10009DED111ADDED100A9DED0F0A00F084F9FA
:103D20008DED000ACDED010A8DED021ADDED022ABE
:103D30009DED012ADDED001A9DED051ADDED040A69
:103D40009DED030A01F032F98DED0C0ACDED0D0A5F
:103D50008DED0E1A94ED020A39EE400AB0EEC00A5B
:103D6000F0EE40BA94ED030ACBEE800AB7EE000AFB
:103D700030EE600AF0EE40AAB7EE001ADFED770AE7
:103D8000B0EE6A0AFFF7E0FEF0EE40AA94ED040AF6
:103D9000C9EE800AB7EE000A30EE600AB0EE40BA13
:103DA000B7EE001ADFED6D0AB0EE4B0AFFF7CCFE5E
:103DB000B0EE40BA2AEE8B0AB0EE408A28EE080A2E
:103DC000B0EE408A00BF85ED078A0CA807C8C5E998
:103DD00009122862D5E90512286909AB07C39DEDD0
:103DE000090ADDED0C0A60EE880A00EEA80A8DEDE6
:103DF000090A9DED0A0ADDED0D0A60EE880A00EE63
:103E0000A80A8DED0A0A9DED0B0ADDED0E0A60EEA3
:103E1000880A00EEA80A8DED0B0AD4ED051AB0EE63
:103E2000611AD4ED051AF1EE611AF0EE610ADDEDCA
:103E3000091AB0EE610AFFF787FE8DED090AD4ED8D
:103E4000051AB0EE611AD4ED051AF1EE611AF0EE22
:103E5000610ADDED0A1AB0EE610AFFF775FE8DED1D
:103E60000A0AD4ED051AB0EE611AD4ED051AF1EE86
:103E7000611AF0EE610ADDED0B1AB0EE610AFFF790
:103E800063FE8DED0B0A09A807C8C5E90512286174
:103E90009DED1B0AD4ED000A60EE880A9DED0C1A18
:103EA00000EE810AD4ED010A9DED091A00EE810AA7
:103EB0008DED060A9DED1C0AD4ED000A60EE880A1D
:103EC0009DED0D1A00EE810AD4ED010A9DED0A1A4E
:103ED00000EE810A8DED070A9DED1D0AD4ED000A62
:103EE00060EE880A9DED0E1A00EE810AD4ED010AFB
:103EF0009DED0B1A00EE810A8DED080AF0EE683A8E
:103F00009DED083ADDED072A9DED062ADDED121A3A
:103F10009DED111ADDED100A9DED0F0A00F002F97A
:103F20008DED0F0ACDED100A8DED111ACDED121A9F
:103F3000DDED121A9DED111ADDED100A9DED0F0A4F
:103F400000F046FA85ED000AC5ED010A85ED021A7A
:103F5000C5ED031A00BF7BE6E02E654200000000BD
:103F6000BD37863500BFFEE700BFFEE77047F0EEC5
:103F7000401AF4EEE01AF1EE10FA02D2B0EE600A46
:103F80007047F4EEC11AF1EE10FA02DDB0EE410A0C
:103F9000F6E7B0EE610AF3E700B52DED040B84B04F
:103FA0009DED072AB1EE422AF0EE421A9DED062A57
:103FB000B1EE422AB0EE421A9DED052AB1EE422A38
:103FC000F0EE420A9DED042AB0EE420A00F012F82B
:103FD0008DED000ACDED010A8DED021ACDED031A2B
:103FE0009DED000ADDED010A9DED021ADDED031ADB
:103FF00008B000BD0FB5B0EE402AF0EE602AB0EE7A
:10400000413AF0EE613A8DED002ACDED012A8DEDB9
:10401000023ACDED033A9DED000ADDED010A9DED7A
:10402000021ADDED031A0FBD00B52DED040B2DEDC9
:10403000048B87B0DDED0E1A9DED0D1ADDED0C0A37
:104040009DED0B0A00F0C4F98DED0B0ACDED0C0AC5
:104050008DED0D1ACDED0E1A9DED0B0AB0EE409AC6
:104060009DED0C0AF0EE408A9DED0D0AB0EE408AFF
:104070009DED0E0AF0EE409A28EEA90A09EE480AD4
:10408000F0EE000A20EE200A8DED040A28EE290A3F
:1040900009EE280AF0EE000A20EE200A8DED050A4E
:1040A00028EEA80A08EE080AF7EE000AB0EE001A99
:1040B00041EE400ACDED060A9DED061ADDED050A3A
:1040C0009DED040A00F0C0FF8DED010ACDED020A5E
:1040D0008DED031A9DED010ADDED020A9DED031A37
:1040E00007B0BDEC048B0FBD0FB5DFED0D1A9FEDD2
:1040F0000C1ADFED0B0AB7EE000AFFF77BFF8DED20
:10410000000ACDED010A8DED021ACDED031A9DEDE9
:10411000000ADDED010A9DED021ADDED031A0FBD67
:104120000000000000B52DED080B2DED0C8B85B0C7
:10413000B0EE638ADDED141A9DED131ADDED120A5F
:104140009DED110A00F044F98DED110ACDED120A32
:104150008DED131ACDED141A9DED150AB0EE40AA9F
:104160009DED160AF0EE408A9DED170AB0EE409ADA
:104170006AEE0A0A48EEA80A49EE090AB0EE600A99
:1041800001F0AAFCF0EE409A29EE880AB0EE40BA9F
:104190009FED440AB4EEC0BAF1EE10FA1CD2B7EEAD
:1041A000000A8DED010AB6EE000A2AEE000A20EEA2
:1041B000080A8DED020AB6EE000A28EE800A20EE0B
:1041C000080A8DED030AB6EE000A29EE000A20EE79
:1041D000080A8DED040A2CE0B6EE000A2BEE000A68
:1041E000F0EE40BAB0EE6B0A01F0AEFBF0EE40AA82
:1041F000B0EE6B0A01F000FBB0EE40CA8AEE290A6D
:10420000F0EE40CA88EEA90AB0EE40DA89EE290A3B
:10421000F0EE40DA8DED01CA2CEEAA0A8DED020A0D
:104220002DEE2A0A8DED030A2DEEAA0A8DED040A61
:1042300000BFDDED043A9DED033ADDED022A9DED70
:10424000012ADDED141A9DED131ADDED120A9DED24
:10425000110A00F029F88DED110ACDED120A8DED4D
:10426000131ACDED141ADDED141A9DED131ADDEDC0
:10427000120A9DED110A00F0ABF88DED110ACDED9B
:10428000120A8DED131ACDED141A9DED110ADDED14
:10429000120A9DED131ADDED141A05B0BDEC0C8B5E
:1042A00008B000BDCCBC8C2B2DED080B84B09DED6F
:1042B000040ADDED080A20EE200ADDED050A9DED79
:1042C000091A00EEC10ADDED060A9DED0A1A00EE9C
:1042D000C10ADDED070A9DED0B1A00EEC10A8DED56
:1042E000000A9DED040ADDED090A20EE200ADDED4D
:1042F000080A9DED051A00EE810ADDED060A9DED26
:104300000B1A00EE810ADDED070A9DED0A1A00EE98
:10431000C10A8DED010A9DED040ADDED0A0A20EEC9
:10432000200ADDED080A9DED061A00EE810ADDED9A
:10433000070A9DED091A00EE810ADDED050A9DEDE3
:104340000B1A00EEC10A8DED020A9DED040ADDEDA7
:104350000B0A20EE200ADDED080A9DED071A00EE9B
:10436000810ADDED050A9DED0A1A00EE810ADDEDF8
:10437000060A9DED091A00EEC10A8DED030A9DEDB6
:10438000000ADDED010A9DED021ADDED031A0CB005
:10439000704710B52DED040BDDED000A60EEA00AAC
:1043A0009DED011ADDED011A41EE210A9DED021A83
:1043B000DDED021A41EE210A9DED031ADDED031A2F
:1043C00041EE210AB0EE600A01F086FB1FBD00003D
:1043D00000B52DED040B2DED028B89B0DDED0E1A2D
:1043E0009DED0D1ADDED0C0A9DED0B0AFFF7D1FFD7
:1043F000B0EE408A9FED270AB4EEC08AF1EE10FAC3
:1044000015D2FFF771FE8DED050ACDED060A8DED93
:10441000071ACDED081A9DED050ADDED060A9DEDA2
:10442000071ADDED081A09B0BDEC028B0FBD9DED3A
:104430000E0AC0EE080AB0EE604A9DED0D0AC0EE0D
:10444000080AF0EE604A9DED0C0AC0EE080AB0EED4
:10445000605A9DED0B0AC0EE080AF0EE605AF0EECD
:10446000441AB0EE641AF0EE450AB0EE650AFFF7A2
:10447000C1FD8DED010ACDED020A8DED031ACDEDE2
:10448000041A9DED010ADDED020A9DED031ADDED32
:10449000041AC8E7CCBC8C2B00B52DED040B2DED18
:1044A000048B85B0DDED0C1A9DED0B1ADDED0A0ACB
:1044B0009DED090AFFF78CFF8DED090ACDED0A0A83
:1044C0008DED0B1ACDED0C1A9DED090AB5EEC00A63
:1044D000F1EE10FA17D29DED090AB1EE400A8DED0A
:1044E000090A9DED0A0AB1EE400A8DED0A0A9DED1A
:1044F0000B0AB1EE400A8DED0B0A9DED0C0AB1EEF0
:10450000400A8DED0C0ADDED0A0A60EEA00A9DED71
:104510000B1ADDED0B1A41EE210A9DED0C1ADDEDB3
:104520000C1A41EE210AB0EE600A01F0D5FAB0EEA5
:10453000408A9DED090AF0EE400AB0EE480A01F00B
:1045400033F8F0EE000A60EE208A9FED2A0A28EE8A
:10455000809A9FED290AB4EEC08AF1EE10FA12D2C9
:104560009FED261ADFED250A9FED240A00F00AFDD3
:104570008DED010ACDED020A8DED031A9FED1F0AA4
:104580008DED040A29E09DED0C0AC0EE080AB0EE9C
:10459000603A9DED0B0AC0EE080AF0EE603A9DED20
:1045A0000A0AC0EE080AB0EE604AB0EE431AF0EE16
:1045B000630AB0EE440A00F0E5FC8DED010ACDED92
:1045C000020A8DED031A9FED0E1ADFED0C0AB0EE14
:1045D000490AFFF7CCFC8DED040A9DED010ADDEDE3
:1045E000020A9DED031ADDED041A05B0BDEC048B43
:1045F0000FBD0000E02E654277CC2B32000000009A
:104600000000344300B52DED040B2DED0E8B83B06F
:10461000DDED141A9DED131ADDED120A9DED110A60
:10462000FFF7D6FE8DED110ACDED120A8DED131AAE
:10463000CDED141A9DED110AF0EE409A9DED120A8F
:10464000B0EE409A9DED130AB0EE408A9DED140A3B
:10465000F0EE408A28EE080A08EEA80AF7EE000AF3
:10466000B0EE001A41EE400AB0EE60AA29EE080A48
:1046700009EEA80AF0EE000A20EE200AF0EE40AAA9
:1046800029EE280A09EEC80AF0EE000A20EE200AF8
:10469000B0EE40BA28EE280A09EE890AF0EE000AC8
:1046A00020EE200AF0EE40BA29EE090A08EE080AC8
:1046B000F7EE000AB0EE001A41EE400AB0EE60CA12
:1046C000B1EE4B0AF0EE40CAB7EE001AFFEE000A58
:1046D000B0EE6C0AFFF74BFCF0EE40CAB0EE6C0A8D
:1046E00000F0CCFEB0EE40DAF0EE4C0AB0EE6B0A11
:1046F00000F05AFFF0EE40DAF0EE4A0AB0EE6A0A35
:1047000000F052FFB0EE40EADFED130A6DEEA00AB2
:10471000B0EE600A00F022F88DED000ADFED0E0A1F
:104720006DEE200AB0EE600A00F018F88DED010A77
:10473000DFED090A6EEE200AB0EE600A00F00EF816
:104740008DED020A9DED000ADDED010A9DED021AD4
:1047500003B0BDEC0E8B0FBDE02E654205E0DFED32
:104760000E0A70EE600AB0EE600ADFED0C0AB4EEDD
:10477000E00AF1EE10FAF2DC05E0DFED070A70EE78
:10478000200AB0EE600ADFED060AB4EEE00AF1EEB0
:1047900010FAF2D3704700000000B4430000344325
:1047A000000034C3704710B5FDF71EFE10BD0000B9
:1047B00000B593B0302107A8FBF735FF142102A8FC
:1047C000FBF731FF00BF002001902448006840F053
:1047D0008050224908600846006800F0805001902F
:1047E00000BF00BF00BF002001901D48006840F4DA
:1047F00080401B4908600846006800F48040019032
:1048000000BF00BF012007900004089002200D9017
:1048100041050E9104210F91A821109102211191BF
:104820000421129107A8FDF7F9FF08B1FDF78EFAF0
:104830000F20029002200390002004904FF4A0501B
:1048400005904FF480500690052102A8FDF7A6FEC2
:1048500008B1FDF77BFA13B000BD000040380240FC
:10486000007000400348006840F47000014908608F
:104870007047000088ED00E070B50446A56B00208D
:10488000E8852846FEF7A6FA70BD70B506460025F5
:10489000B46B20684069C0F3C01594F8410021282A
:1048A00005D125B10020E084204600F0C8F820683A
:1048B0004069C0F3801594F84200222805D125B143
:1048C0000020E085204600F074F8606C40F0100095
:1048D00060642046FEF77EFA70BD70B50546AC6B8D
:1048E0002868006800F48070002842D1E08500BF8D
:1048F00000BF21680C3151E8001F21F4807021684D
:104900000C3141E80002002AF3D100BF00BF00BF14
:104910002168143151E8001F21F001002168143191
:1049200041E80002002AF3D100BF00BF00BF2168A8
:10493000143151E8001F21F040002168143141E892
:104940000002002AF3D100BF202084F84200206B2F
:1049500001280ED100BF00BF21680C3151E8001FB3
:1049600021F0100021680C3141E80002002AF3D147
:1049700000BF00206063206B012804D1A18D204678
:10498000FEF7ECF902E02046FEF72EFD70BD70B593
:104990000546AC6B01206063206B012805D1A08D1A
:1049A00041082046FEF7DAF902E02046FEF71DFD39
:1049B00070BD00BF00BF02680C3252E8002F22F425
:1049C000907102680C3242E80013002BF3D100BF53
:1049D00000BF00BF0268143252E8002F22F001012C
:1049E0000268143242E80013002BF3D100BF016BC0
:1049F00001290ED100BF00BF02680C3252E8002F1F
:104A000022F0100102680C3242E80013002BF3D1AF
:104A100000BF202180F8421000210163704710B5CB
:104A200004462068C06820F040002168C86020204B
:104A300084F841002046FEF738FD002010BD00BF7D
:104A400000BF02680C3252E8002F22F0C001026859
:104A50000C3242E80013002BF3D100BF202180F874
:104A600041107047F8B504460025002694F842002E
:104A7000222873D1A068B0F5805F0BD1206948B9B6
:104A8000A66A20684068C0F308003080A06A801CD5
:104A9000A06214E0A56AA068B0F5805F03D0A068AA
:104AA00028B9206918B920684068287004E0206897
:104AB000406800F07F002870A06A401CA062E08D72
:104AC000401E80B2E085002846D12068C06820F0F2
:104AD00020002168C8602068C06820F480702168C8
:104AE000C8602068406920F00100216848612020EA
:104AF00084F8420000206063206B012826D100204A
:104B0000206300BF00BF21680C3151E8001F21F075
:104B1000100021680C3141E80002002AF3D100BFE7
:104B20002068006800F0100010280AD100BF0020A3
:104B3000009020680068009020684068009000BFE6
:104B400000BFA18D2046FEF709F902E02046FEF7DE
:104B50004BFC0020F8BD01E00020FBE70220F9E754
:104B60002DE9F84F04462068006920F44050E168C0
:104B70000843216808612169A06808436169084306
:104B8000E169084300902068C06849F20C618843DD
:104B9000009908432168C8602068406920F440708B
:104BA000A16908432168486176492068884203D09A
:104BB00075492068884203D1FDF7C8FD814602E0AF
:104BC000FDF7B4FD8146E069B0F5004F6CD10220DD
:104BD0006168A0FB015003461920A9FB0070014643
:104BE0002A463846FBF750FB6421B0FBF1F04FEA50
:104BF000001A02206168A0FB01510B461920A9FB95
:104C000000712A463846FBF73FFB83460220616865
:104C1000A0FB015003461920A9FB00712A46384623
:104C2000FBF732FB6421B0FBF1F000EBC00101EBBC
:104C30000010ABEB8000322101EBC0006421B0FB1F
:104C4000F1F000F0F8000AEB400A02206168A0FBD6
:104C5000015003461920A9FB007001462A46384638
:104C6000FBF712FB834602206168A0FB015003465C
:104C70001920A9FB00712A463846FBF705FB642181
:104C8000B0FBF1F000EBC00101EB0010ABEB8000DA
:104C9000322101EBC0006421B0FBF1F000F007000D
:104CA0005044216888606AE004206168A0FB0150DC
:104CB00003461920A9FB007001462A463846FBF737
:104CC000E3FA824604206168A0FB015003461920E4
:104CD000A9FB007001462A463846FBF7D5FA642145
:104CE000B0FBF1F000EBC00101EB0010AAEB80007B
:104CF000322101EB00106421B0FBF1F000F0F00A6A
:104D000004206168A0FB017003461920A9FB005133
:104D10003A462846FBF7B8FA6421B0FBF1F00AEBFB
:104D2000001A04206168A0FB01510B461920A9FB61
:104D300000712A463846FBF7A7FA834604206168CB
:104D4000A0FB015003461920A9FB007001462A462A
:104D50003846FBF799FA6421B0FBF1F000EBC00193
:104D600001EB0010ABEB8000322101EB001064215D
:104D7000B0FBF1F000F00F00504421688860BDE8FE
:104D8000F88F0000001001400014014077B581B099
:104D9000044615460298A062A58500206064222082
:104DA00084F842002C48E16BC8632C48E16B08642E
:104DB0002B48E16BC8640020E16B086502AE3268E5
:104DC0002368191D2B46E06BFDF7C4F938B110209C
:104DD0006064202084F84200012004B070BD00BF50
:104DE00000200090206800680090206840680090D3
:104DF00000BF00BF206970B100BF00BF21680C3147
:104E000051E8001F41F4807021680C3141E8000234
:104E1000002AF3D100BF00BF00BF2168143151E860
:104E2000001F41F001002168143141E80002002A0E
:104E3000F3D100BF00BF00BF2168143151E8001F4B
:104E400041F040002168143141E80002002AF3D10A
:104E500000BF0020C1E70000DB4800088F490008C0
:104E60008B480008014691F84100212828D1886824
:104E7000B0F5805F0BD1086948B90A6A1088C0F3A1
:104E800008000B685860086A801C086205E00B6A1D
:104E9000581C086218780B685860C88C401E80B295
:104EA000C88458B90868C06820F080000B68D860D2
:104EB0000868C06840F040000B68D8600020704768
:104EC0000220FCE72DE9F84304460D4617469846B4
:104ED000089E31E0701C70B3FDF780FAA0EB08006B
:104EE000B04200D816B90320BDE8F8832068C06836
:104EF00000F00400F8B1802D1ED0402D1CD0206899
:104F00000068C0F3C000B0B100BF0020009020686E
:104F10000068009020684068009000BF00BF2046F5
:104F2000FFF747FD0820606400BF002084F84000C0
:104F300000BF0120D8E7FFE7206800682840A842AA
:104F400001D1012000E00020B842C3D00020CBE70F
:104F500010B50248FDF754FF10BD00001C000020F2
:104F600010B50248FDF74CFF10BD000064000020A2
:104F700010B50248FDF744FF10BD0000AC00002052
:104F800000BFFEE70EB5F0EE402AF0EE601AB0EE7C
:104F9000412ACDED002ACDED011A8DED022A9DEDBD
:104FA000000ADDED010A9DED021A0EBD2DED060B86
:104FB00083B09DED040ADDED080A20EE200ADDED48
:104FC000050A9DED071A00EEC10A8DED000A9DED60
:104FD000050ADDED060A20EE200ADDED030A9DED4F
:104FE000081A00EEC10A8DED010A9DED030ADDED00
:104FF000070A20EE200ADDED040A9DED061A00EEF8
:10500000C10A8DED020A9DED000ADDED010A9DED5C
:10501000021A09B0704710B52DED040BDDED000A42
:1050200060EEA00A9DED011ADDED011A41EE210AA4
:105030009DED021ADDED021A41EE210AB0EE600A82
:1050400000F04AFD1FBD000000B52DED040B2DED55
:10505000028B87B09DED0B1ADDED0A0A9DED090A62
:10506000FFF7D9FFB0EE408A9FED220AB4EEC08A66
:10507000F1EE10FA17D29FED201ADFED1F0A9FED17
:105080001E0AFFF77FFF8DED040ACDED050A8DEDB9
:10509000061A9DED040ADDED050A9DED061A07B01E
:1050A000BDEC028B0FBD9DED0B0AC0EE080AB0EE01
:1050B000603A9DED0A0AC0EE080AF0EE603A9DEDF6
:1050C000090AC0EE080AB0EE604AB0EE431AF0EEEC
:1050D000630AB0EE440AFFF755FF8DED010ACDEDEE
:1050E000020A8DED031A9DED010ADDED020A9DED28
:1050F000031AD4E7CCBC8C2B000000000146002230
:10510000002004E00B5C13449AB2431CD8B20A2876
:10511000F8DBD0B27047000010B5044604B910BDEA
:1051200058212046FBF77FFAB7EE000A84ED0C0AFF
:105130009FED060A84ED0D0A9FED040A84ED0E0A28
:105140009FED020A84ED0F0A00BFE8E700000000AF
:105150002DE9F04106460C46174606B10CB9BDE8EC
:10516000F081002505E0615D304600F006F8681C1E
:1051700085B2BD42F7DB00BFF1E770B504460D46CE
:1051800004B970BDE07A28B9552D02D125700120EF
:10519000E072F6E7E07A2554E07A401CE072E07AAB
:1051A0000B2805DB2146204600F004F80020E072C1
:1051B00000BFE6E72DE9F04704460D46287855285C
:1051C00004D0206D401C2065BDE8F0872846FFF71D
:1051D00095FFA97A884203D0206D401C2065F3E733
:1051E000E978A87800F0FEF806466979287900F099
:1051F000F9F80746E979A87900F0F4F88046697A69
:10520000287A00F0EFF881466878512806D05228B5
:1052100042D0532874D0592871D1A3E000EE106A0F
:10522000B8EEC00ADFED6B0A80EE201AB3EE000A7A
:1052300021EE000ADFED680A20EE200A84ED030A61
:1052400000EE107AB8EEC00A9FED621AC0EE010AB5
:10525000B3EE000A20EE800ADFED5F0A20EE200A9E
:1052600084ED040A00EE108AF8EEC00A9FED591A88
:1052700080EE810AF3EE000A20EE200ADFED560AE6
:1052800020EE200A84ED050A206C401C2064606D2D
:1052900040F00100606599E000EE106AB8EEC00AC7
:1052A0009FED4C1AC0EE010A9FED4C0A20EE800AD9
:1052B00084ED060A00EE107AF8EEC00A9FED451A5A
:1052C00080EE810ADFED450A20EE200A84ED070A10
:1052D00000EE108AB8EEC00A9FED3E1AC0EE010A39
:1052E0009FED3E0A20EE800A84ED080A606C401CA7
:1052F0006064606D40F00200606567E000E061E0BE
:1053000000EE106AB8EEC00ADFED320A80EE201A15
:105310009FED330A21EE000A84ED090A00EE107AAF
:10532000F8EEC00A9FED2B1A80EE810ADFED2C0A01
:1053300020EE200A84ED0A0A00EE108AF8EEC00A78
:105340009FED241A80EE810ADFED250A20EE200A67
:1053500084ED0B0AA06C401CA064606D40F004005A
:10536000606533E000EE106AB8EEC00ADFED190A9E
:1053700080EE201A84ED0C1A00EE107AB8EEC00A06
:10538000DFED140A80EE201A84ED0D1A00EE108A6B
:10539000B8EEC00ADFED0F0A80EE201A84ED0E1A77
:1053A00000EE109AB8EEC00ADFED0A0A80EE201A6D
:1053B00084ED0F1AE06C401CE064606D40F0080062
:1053C000606503E0206D401C206500BF00BF00BF8A
:1053D000FAE60000000000470AE81C410000FA4419
:1053E00000003443024642EA012000B2704703B491
:1053F00001984100009850EAC12018BF04204A0DCE
:1054000018BF40F0010040F2FF72B2EB515F08BFDD
:1054100040F00200012808BF052002B0704741009B
:10542000080218BF04200A0E18BF40F001004FF018
:105430007F4232EA010108BF40F00200012808BFA4
:105440000520704702480068C0F302207047000042
:105450000CED00E010B5002804DB0A07130E054A26
:10546000135406E00A07140E034A00F00F031B1F33
:10547000D45410BD00E400E018ED00E010B54FF08A
:105480000E402DED028BB0EE408A18EE104A00EB74
:105490004400B0F1506F4AD84FF0FC40B0EB440FDD
:1054A00022D2B0EEC80AF7EE000A30EEC00AF6EEDD
:1054B000000A60EE208A18EE900A00F006FC01EE69
:1054C000100A14F0004F1DBFDFED2D0A9FED2D0ACD
:1054D000B1EE411ADFED2C0A08BF9FED2C0AF8EE61
:1054E000001A21EE218A05E0DFED290A68EE088A1C
:1054F000B0EE600A9FED271ADFED271A30EE080A9A
:1055000048EE811A9FED251A08EEA11ADFED241A44
:1055100048EE811A9FED231A08EEA11A68EE281AA8
:10552000BDEC028B01EE810A30EE200A10BD4FF077
:10553000E440B0EB440F0CD918EE100AFFF76FFFF0
:10554000042808BF00F0F4FAB0EE480ABDEC028B64
:1055500010BD4FF07F40B0EB440F07D2B0EE480AC9
:10556000BDEC028BBDE8104000F0D3BA0120FBF780
:1055700089F8BDEC028BBDE8104000F0D1BA000004
:105580000000C9BF22AAFDB90000C93F22AAFD3907
:105590000000000024FE1C3DC78AD83C1E67383D31
:1055A0001B93993DAFAA2A3E10EE100A10B510EEDB
:1055B000901A4FF0684202EB40032DED028BB3F1DD
:1055C000654F3CBF02EB4102B2F1654F7CD200BF98
:1055D000C0F3C753C1F3C7529A1A1B2A09DD10F052
:1055E000004F14BF9FED6E0A9FED6E0ABDEC028B5B
:1055F00010BD12F11A0F1BDA11F0004F09D010F094
:10560000004F0CBF9FED680A9FED680ABDEC028B4E
:1056100010BD80EE208A18EE100AFFF700FF042864
:1056200008BF00F085FAB0EE480ABDEC028B10BD51
:105630004200B2EB410F37D910F0004F19BFDFED38
:105640005C1A9FED5C1ADFED5C1A9FED5C1AB0EE00
:10565000602A0A46F1EE400A80F00041B0EE420AAC
:1056600010460A1A5200B2F1807F34D2484010F03E
:10567000004FDFED532A9FED533A1DBFBEEE002AC7
:1056800071EEE21A31EE431AB6EE002A04BF71EE53
:10569000A21A31EE031AF0EE402A42EE602A40EEE2
:1056A000020A82EEA02A18E011F0004F04BF9FED1D
:1056B000461AF0EE411AD4D010F0004F1CBFDFEDB7
:1056C000431A9FED431A00E026E004BFDFED411AC4
:1056D0009FED411AC5E780EE202A22EE020ADFED97
:1056E0003F0ADFED3F2ABDEC028B40EE202ADFEDC2
:1056F0003D0A40EE220ADFED3C2A40EE202ADFED93
:105700003B0A40EE220A22EE000A00EE201A31EE99
:10571000020A30EE210A10BD4FF07F42B2EB400F7B
:1057200028BFB2EB410F05D2BDEC028BBDE81040A3
:1057300000F0F2B940EA01035B0008BF41F0FF410D
:105740000BD0B2EB400F08BFB2EB410F08D120F0F5
:10575000804000EE100A21F0804100EE901A37E7F9
:10576000B2EB400F12BF5FEA410240F0FF4001F090
:1057700000413FF42DAF4A0092EA40033FF528AFC5
:10578000002AACBF9FED1A1A9FED1A1A20EE010AEB
:1057900060EE810A10EE100A10EE901A18E7000071
:1057A000DB0FC9BFDB0FC93FDB0F4940DB0F49C02F
:1057B0000000C9BF22AAFDB90000C93F22AAFD39D5
:1057C0000060ED3EC30ACE3700000000000049C073
:1057D00022AA7DBA0000494022AA7D3A2DAD65BDBE
:1057E0008FB8D53D0FB511BE61C84C3EA8AAAABE60
:1057F0000000804F0000802F10EE101A08B5444AB8
:105800006846B2EB410F28D94FF0E640B0EB410FAC
:1058100094BF00204FF0FF3000900098002861DB1B
:1058200060EE000A10F0010F45D010F0020FDFED1E
:10583000391A9FED391A00EEE11ADFED381A40EE01
:10584000811A21EEA01AF0EE400A40EE010A08BFCC
:10585000F1EE600AB0EE600A08BD314B21F0004263
:1058600093423CD911F0004FDFED2E0A20EE201AB2
:10587000DFED2D0A19BF31EE601A71EE200A31EE0C
:10588000201A71EE600ABDEEE01A11EE100A9FEDCB
:10589000271A00F0030000EEC10A9FED251A0090C0
:1058A00000EEC10A9FED231A00EEC10A9FED221AF5
:1058B00000EEC10AB1E79FED211A9FED210A10F019
:1058C000020F00EE810A9FED1F1A00EE801AB7EE5C
:1058D000000A00EE810A18BFB1EE400A08BD00F0D0
:1058E0002FF99AE710EE100A4000B0F17F4F3CBF4D
:1058F000B7EE000A08BD07D14FF00100FAF7C2FE6B
:10590000BDE8084000F00CB9BDE8084000F001B95E
:10591000B61F927E336D4C39DA82083CA0AA2ABEAB
:10592000490E494683F9223F0000004B0000C93F61
:1059300000A0FD390020A2331A61342CB93AB2BA62
:10594000CA9F2A3DDDFFFFBE00B510EE101A2DEDF7
:10595000028B81B0524A6846B2EB410F2ED94FF00C
:10596000E640B0EB410F94BF00204FF0FF300090B5
:105970000098B0EE408A00286ADB10F0010F4BD08F
:1059800068EE080A9FED471A9FED470A00EE810A6C
:105990009FED461A10F0020F00EE801AB7EE000AD3
:1059A00000EE810A02BF01B0BDEC028B00BD00BF5A
:1059B00001B0B1EE400ABDEC028B00BD3C4B21F0C2
:1059C0000042934241D911F0004FDFED3A0A20EE38
:1059D000201ADFED390A19BF31EE601A71EE200A84
:1059E00031EE201A71EE600ABDEEE01A11EE100AD7
:1059F0009FED321A00F0030000EEC10A9FED301A4D
:105A0000009000EEC10A9FED2F1A00EEC10A9FED33
:105A10002E1A00EEC10AABE728EE080A9FED2B1AFA
:105A2000DFED2B0A10F0020F40EE410A9FED291A1C
:105A300000EE201A61EE000AB0EE480A08EE200AD5
:105A4000B6D101B0BDEC028B00BD00F079F88FE754
:105A500018EE100A4000B0F17F4F0DD218EE100A78
:105A6000FFF7DDFC042808BF00F062F8B0EE480A3A
:105A700001B0BDEC028B00BD09D10120FAF702FE96
:105A800001B0BDEC028B5DF804EB00F049B801B049
:105A9000B0EE480ABDEC028B5DF804EB00F039B8BB
:105AA000B61F927EB93AB2BACA9F2A3DDDFFFFBE49
:105AB000490E494683F9223F0000004B0000C93FD0
:105AC00000A0FD390020A2331A61342C336D4C390B
:105AD000DA82083CA0AA2ABE10B52DED028BB1EEE9
